{
  "contractName": "WasteNetwork",
  "abi": [
    {
      "inputs": [],
      "payable": false,
      "stateMutability": "nonpayable",
      "type": "constructor"
    },
    {
      "anonymous": false,
      "inputs": [
        {
          "indexed": false,
          "internalType": "uint256",
          "name": "id",
          "type": "uint256"
        },
        {
          "indexed": false,
          "internalType": "string",
          "name": "content",
          "type": "string"
        },
        {
          "indexed": false,
          "internalType": "address",
          "name": "poster",
          "type": "address"
        },
        {
          "indexed": false,
          "internalType": "address",
          "name": "worker",
          "type": "address"
        },
        {
          "indexed": false,
          "internalType": "uint256",
          "name": "payamt",
          "type": "uint256"
        }
      ],
      "name": "ClaimThePost",
      "type": "event"
    },
    {
      "anonymous": false,
      "inputs": [
        {
          "indexed": false,
          "internalType": "uint256",
          "name": "id",
          "type": "uint256"
        },
        {
          "indexed": false,
          "internalType": "string",
          "name": "content",
          "type": "string"
        },
        {
          "indexed": false,
          "internalType": "address",
          "name": "poster",
          "type": "address"
        },
        {
          "indexed": false,
          "internalType": "address payable",
          "name": "worker",
          "type": "address"
        },
        {
          "indexed": false,
          "internalType": "uint256",
          "name": "payamt",
          "type": "uint256"
        }
      ],
      "name": "Collecting",
      "type": "event"
    },
    {
      "anonymous": false,
      "inputs": [
        {
          "indexed": false,
          "internalType": "uint256",
          "name": "id",
          "type": "uint256"
        },
        {
          "indexed": false,
          "internalType": "string",
          "name": "content",
          "type": "string"
        },
        {
          "indexed": false,
          "internalType": "address payable",
          "name": "poster",
          "type": "address"
        },
        {
          "indexed": false,
          "internalType": "address payable",
          "name": "worker",
          "type": "address"
        },
        {
          "indexed": false,
          "internalType": "uint256",
          "name": "payamt",
          "type": "uint256"
        }
      ],
      "name": "PostCreated",
      "type": "event"
    },
    {
      "constant": true,
      "inputs": [],
      "name": "name",
      "outputs": [
        {
          "internalType": "string",
          "name": "",
          "type": "string"
        }
      ],
      "payable": false,
      "stateMutability": "view",
      "type": "function"
    },
    {
      "constant": true,
      "inputs": [],
      "name": "postCount",
      "outputs": [
        {
          "internalType": "uint256",
          "name": "",
          "type": "uint256"
        }
      ],
      "payable": false,
      "stateMutability": "view",
      "type": "function"
    },
    {
      "constant": true,
      "inputs": [
        {
          "internalType": "uint256",
          "name": "",
          "type": "uint256"
        }
      ],
      "name": "posts",
      "outputs": [
        {
          "internalType": "uint256",
          "name": "id",
          "type": "uint256"
        },
        {
          "internalType": "string",
          "name": "content",
          "type": "string"
        },
        {
          "internalType": "address payable",
          "name": "poster",
          "type": "address"
        },
        {
          "internalType": "address payable",
          "name": "worker",
          "type": "address"
        },
        {
          "internalType": "uint256",
          "name": "payamt",
          "type": "uint256"
        }
      ],
      "payable": false,
      "stateMutability": "view",
      "type": "function"
    },
    {
      "constant": false,
      "inputs": [
        {
          "internalType": "string",
          "name": "_content",
          "type": "string"
        }
      ],
      "name": "createPost",
      "outputs": [],
      "payable": false,
      "stateMutability": "nonpayable",
      "type": "function"
    },
    {
      "constant": false,
      "inputs": [
        {
          "internalType": "uint256",
          "name": "_id",
          "type": "uint256"
        }
      ],
      "name": "ClaimPost",
      "outputs": [],
      "payable": true,
      "stateMutability": "payable",
      "type": "function"
    },
    {
      "constant": false,
      "inputs": [
        {
          "internalType": "uint256",
          "name": "_id",
          "type": "uint256"
        }
      ],
      "name": "payCollection",
      "outputs": [],
      "payable": true,
      "stateMutability": "payable",
      "type": "function"
    }
  ],
  "bytecode": "0x6080604052600060015534801561001557600080fd5b506040518060400160405280601581526020017f5761737465204d616e61676572204e6574776f726b000000000000000000000081525060009080519060200190610061929190610067565b5061010c565b828054600181600116156101000203166002900490600052602060002090601f016020900481019282601f106100a857805160ff19168380011785556100d6565b828001600101855582156100d6579182015b828111156100d55782518255916020019190600101906100ba565b5b5090506100e391906100e7565b5090565b61010991905b808211156101055760008160009055506001016100ed565b5090565b90565b611086806200011c6000396000f3fe6080604052600436106100555760003560e01c806306fdde031461005a5780630b1e7f83146100ea57806317906c2e146102125780639c7d50961461023d578063c7303c611461026b578063d4babbe114610333575b600080fd5b34801561006657600080fd5b5061006f610361565b6040518080602001828103825283818151815260200191508051906020019080838360005b838110156100af578082015181840152602081019050610094565b50505050905090810190601f1680156100dc5780820380516001836020036101000a031916815260200191505b509250505060405180910390f35b3480156100f657600080fd5b506101236004803603602081101561010d57600080fd5b81019080803590602001909291905050506103ff565b60405180868152602001806020018573ffffffffffffffffffffffffffffffffffffffff1673ffffffffffffffffffffffffffffffffffffffff1681526020018473ffffffffffffffffffffffffffffffffffffffff1673ffffffffffffffffffffffffffffffffffffffff168152602001838152602001828103825286818151815260200191508051906020019080838360005b838110156101d35780820151818401526020810190506101b8565b50505050905090810190601f1680156102005780820380516001836020036101000a031916815260200191505b50965050505050505060405180910390f35b34801561021e57600080fd5b5061022761050d565b6040518082815260200191505060405180910390f35b6102696004803603602081101561025357600080fd5b8101908080359060200190929190505050610513565b005b34801561027757600080fd5b506103316004803603602081101561028e57600080fd5b81019080803590602001906401000000008111156102ab57600080fd5b8201836020820111156102bd57600080fd5b803590602001918460018302840111640100000000831117156102df57600080fd5b91908080601f016020809104026020016040519081016040528093929190818152602001838380828437600081840152601f19601f8201169050808301925050505050505091929192905050506108fc565b005b61035f6004803603602081101561034957600080fd5b8101908080359060200190929190505050610b64565b005b60008054600181600116156101000203166002900480601f0160208091040260200160405190810160405280929190818152602001828054600181600116156101000203166002900480156103f75780601f106103cc576101008083540402835291602001916103f7565b820191906000526020600020905b8154815290600101906020018083116103da57829003601f168201915b505050505081565b6002602052806000526040600020600091509050806000015490806001018054600181600116156101000203166002900480601f0160208091040260200160405190810160405280929190818152602001828054600181600116156101000203166002900480156104b15780601f10610486576101008083540402835291602001916104b1565b820191906000526020600020905b81548152906001019060200180831161049457829003601f168201915b5050505050908060020160009054906101000a900473ffffffffffffffffffffffffffffffffffffffff16908060030160009054906101000a900473ffffffffffffffffffffffffffffffffffffffff16908060040154905085565b60015481565b60008111801561052557506001548111155b61052e57600080fd5b610536610f51565b600260008381526020019081526020016000206040518060a001604052908160008201548152602001600182018054600181600116156101000203166002900480601f0160208091040260200160405190810160405280929190818152602001828054600181600116156101000203166002900480156105f75780601f106105cc576101008083540402835291602001916105f7565b820191906000526020600020905b8154815290600101906020018083116105da57829003601f168201915b505050505081526020016002820160009054906101000a900473ffffffffffffffffffffffffffffffffffffffff1673ffffffffffffffffffffffffffffffffffffffff1673ffffffffffffffffffffffffffffffffffffffff1681526020016003820160009054906101000a900473ffffffffffffffffffffffffffffffffffffffff1673ffffffffffffffffffffffffffffffffffffffff1673ffffffffffffffffffffffffffffffffffffffff168152602001600482015481525050905060008160400151905060008260600151905033836060019073ffffffffffffffffffffffffffffffffffffffff16908173ffffffffffffffffffffffffffffffffffffffff1681525050826002600086815260200190815260200160002060008201518160000155602082015181600101908051906020019061073c929190610fac565b5060408201518160020160006101000a81548173ffffffffffffffffffffffffffffffffffffffff021916908373ffffffffffffffffffffffffffffffffffffffff16021790555060608201518160030160006101000a81548173ffffffffffffffffffffffffffffffffffffffff021916908373ffffffffffffffffffffffffffffffffffffffff160217905550608082015181600401559050507f227cad121a34926e4ea62c7e045088e8d4ae49c5b3ec87461d7ab8f3b2addef460015484602001518484876080015160405180868152602001806020018573ffffffffffffffffffffffffffffffffffffffff1673ffffffffffffffffffffffffffffffffffffffff1681526020018473ffffffffffffffffffffffffffffffffffffffff1673ffffffffffffffffffffffffffffffffffffffff168152602001838152602001828103825286818151815260200191508051906020019080838360005b838110156108b857808201518184015260208101905061089d565b50505050905090810190601f1680156108e55780820380516001836020036101000a031916815260200191505b50965050505050505060405180910390a150505050565b600081511161090a57600080fd5b6001600081548092919060010191905055506040518060a0016040528060015481526020018281526020013373ffffffffffffffffffffffffffffffffffffffff168152602001600073ffffffffffffffffffffffffffffffffffffffff16815260200160008152506002600060015481526020019081526020016000206000820151816000015560208201518160010190805190602001906109ae929190610fac565b5060408201518160020160006101000a81548173ffffffffffffffffffffffffffffffffffffffff021916908373ffffffffffffffffffffffffffffffffffffffff16021790555060608201518160030160006101000a81548173ffffffffffffffffffffffffffffffffffffffff021916908373ffffffffffffffffffffffffffffffffffffffff160217905550608082015181600401559050507f3e0f752c3291e23956c8035a7c7fb15a0371f8fbf81a2d681a28dff8484119b2600154823360008060405180868152602001806020018573ffffffffffffffffffffffffffffffffffffffff1673ffffffffffffffffffffffffffffffffffffffff1681526020018473ffffffffffffffffffffffffffffffffffffffff1673ffffffffffffffffffffffffffffffffffffffff168152602001838152602001828103825286818151815260200191508051906020019080838360005b83811015610b23578082015181840152602081019050610b08565b50505050905090810190601f168015610b505780820380516001836020036101000a031916815260200191505b50965050505050505060405180910390a150565b610b6c610f51565b600260008381526020019081526020016000206040518060a001604052908160008201548152602001600182018054600181600116156101000203166002900480601f016020809104026020016040519081016040528092919081815260200182805460018160011615610100020316600290048015610c2d5780601f10610c0257610100808354040283529160200191610c2d565b820191906000526020600020905b815481529060010190602001808311610c1057829003601f168201915b505050505081526020016002820160009054906101000a900473ffffffffffffffffffffffffffffffffffffffff1673ffffffffffffffffffffffffffffffffffffffff1673ffffffffffffffffffffffffffffffffffffffff1681526020016003820160009054906101000a900473ffffffffffffffffffffffffffffffffffffffff1673ffffffffffffffffffffffffffffffffffffffff1673ffffffffffffffffffffffffffffffffffffffff16815260200160048201548152505090506000816040015190506000826060015190508073ffffffffffffffffffffffffffffffffffffffff166108fc349081150290604051600060405180830381858888f19350505050158015610d46573d6000803e3d6000fd5b50348360800151018360800181815250508260026000868152602001908152602001600020600082015181600001556020820151816001019080519060200190610d91929190610fac565b5060408201518160020160006101000a81548173ffffffffffffffffffffffffffffffffffffffff021916908373ffffffffffffffffffffffffffffffffffffffff16021790555060608201518160030160006101000a81548173ffffffffffffffffffffffffffffffffffffffff021916908373ffffffffffffffffffffffffffffffffffffffff160217905550608082015181600401559050507fe5376f664f69f136ca29aa8cda7f1934d19961404a2b76d8245e6fb6c9ca9add60015484602001518484876080015160405180868152602001806020018573ffffffffffffffffffffffffffffffffffffffff1673ffffffffffffffffffffffffffffffffffffffff1681526020018473ffffffffffffffffffffffffffffffffffffffff1673ffffffffffffffffffffffffffffffffffffffff168152602001838152602001828103825286818151815260200191508051906020019080838360005b83811015610f0d578082015181840152602081019050610ef2565b50505050905090810190601f168015610f3a5780820380516001836020036101000a031916815260200191505b50965050505050505060405180910390a150505050565b6040518060a001604052806000815260200160608152602001600073ffffffffffffffffffffffffffffffffffffffff168152602001600073ffffffffffffffffffffffffffffffffffffffff168152602001600081525090565b828054600181600116156101000203166002900490600052602060002090601f016020900481019282601f10610fed57805160ff191683800117855561101b565b8280016001018555821561101b579182015b8281111561101a578251825591602001919060010190610fff565b5b509050611028919061102c565b5090565b61104e91905b8082111561104a576000816000905550600101611032565b5090565b9056fea265627a7a723158205aa0a993e233210e40605eaab97ce729316dff7a932f689ed8e8825382cfebcd64736f6c63430005100032",
  "source": "pragma solidity ^0.5.0;\n\ncontract WasteNetwork {\n    string public name;\n    uint public postCount = 0; //To count the number of posts\n    mapping(uint => Post) public posts;  //key value store that enables torage of data into the blockchain\n    //'posts' is the mapping\n    \n    struct Post {\n        uint id;\n        string content; //General content of type of waster\n        address payable poster; //address of person who created the post\n        address payable worker; // address of the person who claims that specific post -- null default\n        uint payamt;\n    }\n    event PostCreated(\n        uint id,\n        string content,\n        address payable poster,\n        address payable worker,\n        uint payamt\n    );\n\n    event ClaimThePost(\n        uint id,\n        string content,\n        address poster,\n        address worker,\n        uint payamt\n    );\n\n    event Collecting(\n        uint id,\n        string content,\n        address poster,\n        address payable worker,\n        uint payamt\n    );\n\n    constructor() public {\n        name = \"Waste Manager Network\";\n    }\n     \n    function createPost (string memory _content) public {\n        // Require that post be non empty\n        require(bytes(_content).length > 0);\n        postCount ++; //Incrementing the post count\n        // Create the post \n        posts[postCount] = Post(postCount, _content, msg.sender,0x0000000000000000000000000000000000000000, 0);\n        // Triggering events\n        emit PostCreated(postCount, _content, msg.sender,0x0000000000000000000000000000000000000000, 0);\n\n    }\n    //Function for claiming a waste listing\n    function ClaimPost(uint _id) public payable {\n        // Make sure the id is valid\n        require(_id > 0 && _id <= postCount);\n        // Fetching the post and making a copy of to _post\n        Post memory _post = posts[_id];\n        //fetching the poster address\n        address _poster = _post.poster;\n\n        //making sure logged in user not same as poster\n        // require(msg.sender!=_post.poster);\n\n        // fetching the worker who is the current loggedin person\n        address _worker = _post.worker;\n        // get the address of the worker address who claimed the post\n        _post.worker = msg.sender;\n        \n\n        //updating the post\n        posts[_id] = _post;\n        // Trigger the event\n        emit ClaimThePost(postCount, _post.content, _poster, _worker, _post.payamt);\n\n    }\n\n        //function to verify nad tranfer the amount\n      function payCollection(uint _id) public payable {\n        // Fetching the post and making a copy of to _post\n        Post memory _post = posts[_id];\n\n        //fetching the poster address\n        address _poster = _post.poster;\n\n        // Fetch the worker\n        address payable _worker = _post.worker;\n        // Pay the worker by sending them Ether\n        address(_worker).transfer(msg.value);\n        // Increment the tip amount\n        _post.payamt = _post.payamt + msg.value;\n        // Update the post\n        posts[_id] = _post;\n        // Trigger an event\n        emit Collecting(postCount, _post.content, _poster, _worker, _post.payamt);\n    }\n\n\n\n\n\n}",
  "sourcePath": "/Users/msayyaf/code/block/waste-block/src/contracts/WasteNetwork.sol",
  "compiler": {
    "name": "solc",
    "version": "0.5.16+commit.9c3226ce.Emscripten.clang"
  },
  "schemaVersion": "3.0.22",
  "updatedAt": "2020-02-02T03:15:17.179Z",
  "networkType": "ethereum",
  "devdoc": {
    "methods": {}
  },
  "userdoc": {
    "methods": {}
  }
}